{
  "contractName": "AccessControl",
  "abi": [
    {
      "inputs": [],
      "stateMutability": "nonpayable",
      "type": "constructor"
    },
    {
      "anonymous": false,
      "inputs": [
        {
          "indexed": false,
          "internalType": "address",
          "name": "user",
          "type": "address"
        }
      ],
      "name": "AccessDenied",
      "type": "event"
    },
    {
      "anonymous": false,
      "inputs": [
        {
          "indexed": false,
          "internalType": "address",
          "name": "user",
          "type": "address"
        }
      ],
      "name": "AccessGranted",
      "type": "event"
    },
    {
      "inputs": [],
      "name": "admin",
      "outputs": [
        {
          "internalType": "address",
          "name": "",
          "type": "address"
        }
      ],
      "stateMutability": "view",
      "type": "function",
      "constant": true
    },
    {
      "inputs": [
        {
          "internalType": "address",
          "name": "",
          "type": "address"
        }
      ],
      "name": "authorized",
      "outputs": [
        {
          "internalType": "bool",
          "name": "",
          "type": "bool"
        }
      ],
      "stateMutability": "view",
      "type": "function",
      "constant": true
    },
    {
      "inputs": [
        {
          "internalType": "address",
          "name": "user",
          "type": "address"
        }
      ],
      "name": "authorizeUser",
      "outputs": [],
      "stateMutability": "nonpayable",
      "type": "function"
    },
    {
      "inputs": [
        {
          "internalType": "address",
          "name": "user",
          "type": "address"
        }
      ],
      "name": "revokeUser",
      "outputs": [],
      "stateMutability": "nonpayable",
      "type": "function"
    },
    {
      "inputs": [],
      "name": "requestAccess",
      "outputs": [],
      "stateMutability": "nonpayable",
      "type": "function"
    }
  ],
  "bytecode": "0x608060405234801561001057600080fd5b50336000806101000a81548173ffffffffffffffffffffffffffffffffffffffff021916908373ffffffffffffffffffffffffffffffffffffffff16021790555060018060003373ffffffffffffffffffffffffffffffffffffffff1673ffffffffffffffffffffffffffffffffffffffff16815260200190815260200160002060006101000a81548160ff02191690831515021790555061056c806100b76000396000f3fe608060405234801561001057600080fd5b50600436106100575760003560e01c806367c2a3601461005c578063b918161114610078578063eb2f4817146100a8578063ef097fc4146100b2578063f851a440146100ce575b600080fd5b6100766004803603810190610071919061042c565b6100ec565b005b610092600480360381019061008d919061042c565b6101d4565b60405161009f9190610474565b60405180910390f35b6100b06101f4565b005b6100cc60048036038101906100c7919061042c565b6102bc565b005b6100d66103a5565b6040516100e3919061049e565b60405180910390f35b60008054906101000a900473ffffffffffffffffffffffffffffffffffffffff1673ffffffffffffffffffffffffffffffffffffffff163373ffffffffffffffffffffffffffffffffffffffff161461017a576040517f08c379a000000000000000000000000000000000000000000000000000000000815260040161017190610516565b60405180910390fd5b60018060008373ffffffffffffffffffffffffffffffffffffffff1673ffffffffffffffffffffffffffffffffffffffff16815260200190815260200160002060006101000a81548160ff02191690831515021790555050565b60016020528060005260406000206000915054906101000a900460ff1681565b600160003373ffffffffffffffffffffffffffffffffffffffff1673ffffffffffffffffffffffffffffffffffffffff16815260200190815260200160002060009054906101000a900460ff1615610282577fdeb5c31899474fe8c086c95ff9344480d19365676a6a1d22d37bb8e3e7c0ef1833604051610275919061049e565b60405180910390a16102ba565b7f0504a20df814c93c7ddd7f77490f6e926f33d1094b561451e480448195c3a917336040516102b1919061049e565b60405180910390a15b565b60008054906101000a900473ffffffffffffffffffffffffffffffffffffffff1673ffffffffffffffffffffffffffffffffffffffff163373ffffffffffffffffffffffffffffffffffffffff161461034a576040517f08c379a000000000000000000000000000000000000000000000000000000000815260040161034190610516565b60405180910390fd5b6000600160008373ffffffffffffffffffffffffffffffffffffffff1673ffffffffffffffffffffffffffffffffffffffff16815260200190815260200160002060006101000a81548160ff02191690831515021790555050565b60008054906101000a900473ffffffffffffffffffffffffffffffffffffffff1681565b600080fd5b600073ffffffffffffffffffffffffffffffffffffffff82169050919050565b60006103f9826103ce565b9050919050565b610409816103ee565b811461041457600080fd5b50565b60008135905061042681610400565b92915050565b600060208284031215610442576104416103c9565b5b600061045084828501610417565b91505092915050565b60008115159050919050565b61046e81610459565b82525050565b60006020820190506104896000830184610465565b92915050565b610498816103ee565b82525050565b60006020820190506104b3600083018461048f565b92915050565b600082825260208201905092915050565b7f4f6e6c792061646d696e20616c6c6f7765640000000000000000000000000000600082015250565b60006105006012836104b9565b915061050b826104ca565b602082019050919050565b6000602082019050818103600083015261052f816104f3565b905091905056fea2646970667358221220129d4dbe1951dee3a41ba4274a26fd29e7cea9a12d571d575e996a79d4233f7b64736f6c63430008110033",
  "immutableReferences": {},
  "source": "// SPDX-License-Identifier: MIT\npragma solidity ^0.8.17;\n\ncontract AccessControl {\n\n    address public admin;\n    mapping(address => bool) public authorized;\n\n    event AccessGranted(address user);\n    event AccessDenied(address user);\n\n    constructor() {\n        admin = msg.sender;\n\n        authorized[msg.sender] = true;\n    }\n\n    function authorizeUser(address user) public {\n        require(msg.sender == admin, \"Only admin allowed\");\n\n        authorized[user] = true;\n    }\n\n    function revokeUser(address user) public {\n        require(msg.sender == admin, \"Only admin allowed\");\n\n        authorized[user] = false;\n    }\n\n    function requestAccess() public {\n        if (authorized[msg.sender]) {\n            emit AccessGranted(msg.sender);\n        } else {\n            emit AccessDenied(msg.sender);\n        }\n    }\n}",
  "sourcePath": "D:\\CyberSec\\blockchain-network-security-project\\contracts\\AccessControl.sol",
  "compiler": {
    "name": "solc",
    "version": "0.8.17+commit.8df45f5f.Emscripten.clang"
  },
  "schemaVersion": "3.4.16",
  "updatedAt": "2026-05-09T03:27:13.875Z",
  "networkType": "ethereum",
  "devdoc": {
    "kind": "dev",
    "methods": {},
    "version": 1
  },
  "userdoc": {
    "kind": "user",
    "methods": {},
    "version": 1
  }
}